{"abi":[{"type":"function","name":"addr","inputs":[{"name":"node","type":"bytes32","internalType":"bytes32"}],"outputs":[{"name":"","type":"address","internalType":"address"}],"stateMutability":"view"},{"type":"function","name":"addrRecords","inputs":[{"name":"","type":"bytes32","internalType":"bytes32"}],"outputs":[{"name":"","type":"address","internalType":"address"}],"stateMutability":"view"},{"type":"function","name":"setAddr","inputs":[{"name":"node","type":"bytes32","internalType":"bytes32"},{"name":"a","type":"address","internalType":"address"}],"outputs":[],"stateMutability":"nonpayable"},{"type":"function","name":"setText","inputs":[{"name":"node","type":"bytes32","internalType":"bytes32"},{"name":"key","type":"string","internalType":"string"},{"name":"value","type":"string","internalType":"string"}],"outputs":[],"stateMutability":"nonpayable"},{"type":"function","name":"text","inputs":[{"name":"node","type":"bytes32","internalType":"bytes32"},{"name":"key","type":"string","internalType":"string"}],"outputs":[{"name":"","type":"string","internalType":"string"}],"stateMutability":"view"},{"type":"function","name":"textRecords","inputs":[{"name":"","type":"bytes32","internalType":"bytes32"},{"name":"","type":"string","internalType":"string"}],"outputs":[{"name":"","type":"string","internalType":"string"}],"stateMutability":"view"}],"bytecode":{"object":"0x608080604052346100165761053c908161001b8239f35b5f80fdfe6080604081815260049182361015610015575f80fd5b5f3560e01c90816310f13a8c146101fc5750806323efc341146101ce5780633b3b57de146101ce57806359d1d43c14610174578063864dbe9f146100a95763d5fa2b0014610061575f80fd5b346100a557806003193601126100a5576024356001600160a01b03811692908390036100a557355f90815260208190522080546001600160a01b0319169091179055005b5f80fd5b50346100a557806003193601126100a5576024359167ffffffffffffffff8084116100a557366023850112156100a55783820135908111610161578251936100fb601f8301601f1916602001866103f6565b8185526020850136602484840101116100a55761015d95610152945f602086610144976024839801873784010152355f5260018352855f209086519485938492519283916103a9565b820190815203019020610464565b9051918291826103ca565b0390f35b604182634e487b7160e01b5f525260245ffd5b50346100a557806003193601126100a55760243567ffffffffffffffff81116100a55761015d9260206101ad610152933690840161037b565b92355f5260018252845f208386519485938437820190815203019020610464565b50346100a55760203660031901126100a557602091355f525f825260018060a01b03815f2054169051908152f35b839150346100a55760603660031901126100a55767ffffffffffffffff926024358481116100a557610231903690850161037b565b9190936044358681116100a55761024b903690830161037b565b94909282355f52816001978660209788948b86525f20928437820190815203019020958411610368575061027f855461042c565b601f8111610322575b505f91601f84116001146102c357509282939183925f946102b8575b50501b915f199060031b1c19161790555f80f35b0135925085806102a4565b9183601f198116875f52845f20945f905b8883831061030857505050106102ef575b505050811b019055005b01355f19600384901b60f8161c191690558380806102e5565b8686013588559096019593840193879350908101906102d4565b855f52825f20601f850160051c81019184861061035e575b601f0160051c019085905b828110610353575050610288565b5f8155018590610345565b909150819061033a565b604190634e487b7160e01b5f525260245ffd5b9181601f840112156100a55782359167ffffffffffffffff83116100a557602083818601950101116100a557565b5f5b8381106103ba5750505f910152565b81810151838201526020016103ab565b604091602082526103ea81518092816020860152602086860191016103a9565b601f01601f1916010190565b90601f8019910116810190811067ffffffffffffffff82111761041857604052565b634e487b7160e01b5f52604160045260245ffd5b90600182811c9216801561045a575b602083101461044657565b634e487b7160e01b5f52602260045260245ffd5b91607f169161043b565b9060405191825f82546104768161042c565b908184526020946001916001811690815f146104e457506001146104a6575b5050506104a4925003836103f6565b565b5f90815285812095935091905b8183106104cc5750506104a493508201015f8080610495565b855488840185015294850194879450918301916104b3565b925050506104a494925060ff191682840152151560051b8201015f808061049556fea264697066735822122034fb5f13c932ed58587a261e872a744d76954a936d0963906f4775d4279e3b0a64736f6c63430008180033","linkReferences":{}},"methodIdentifiers":{"addr(bytes32)":"3b3b57de","addrRecords(bytes32)":"23efc341","setAddr(bytes32,address)":"d5fa2b00","setText(bytes32,string,string)":"10f13a8c","text(bytes32,string)":"59d1d43c","textRecords(bytes32,string)":"864dbe9f"},"id":22}