{"abi":[{"type":"function","name":"allowance","inputs":[{"name":"","type":"address","internalType":"address"},{"name":"","type":"address","internalType":"address"}],"outputs":[{"name":"","type":"uint256","internalType":"uint256"}],"stateMutability":"view"},{"type":"function","name":"approve","inputs":[{"name":"spender","type":"address","internalType":"address"},{"name":"value","type":"uint256","internalType":"uint256"}],"outputs":[{"name":"","type":"bool","internalType":"bool"}],"stateMutability":"nonpayable"},{"type":"function","name":"balanceOf","inputs":[{"name":"","type":"address","internalType":"address"}],"outputs":[{"name":"","type":"uint256","internalType":"uint256"}],"stateMutability":"view"},{"type":"function","name":"decimals","inputs":[],"outputs":[{"name":"","type":"uint8","internalType":"uint8"}],"stateMutability":"view"},{"type":"function","name":"mint","inputs":[{"name":"to","type":"address","internalType":"address"},{"name":"amount","type":"uint256","internalType":"uint256"}],"outputs":[],"stateMutability":"nonpayable"},{"type":"function","name":"name","inputs":[],"outputs":[{"name":"","type":"string","internalType":"string"}],"stateMutability":"view"},{"type":"function","name":"symbol","inputs":[],"outputs":[{"name":"","type":"string","internalType":"string"}],"stateMutability":"view"},{"type":"function","name":"transfer","inputs":[{"name":"to","type":"address","internalType":"address"},{"name":"value","type":"uint256","internalType":"uint256"}],"outputs":[{"name":"","type":"bool","internalType":"bool"}],"stateMutability":"nonpayable"},{"type":"function","name":"transferFrom","inputs":[{"name":"from","type":"address","internalType":"address"},{"name":"to","type":"address","internalType":"address"},{"name":"value","type":"uint256","internalType":"uint256"}],"outputs":[{"name":"","type":"bool","internalType":"bool"}],"stateMutability":"nonpayable"}],"bytecode":{"object":"0x6080604052346100f8576100135f546100fc565b601f81116100b1575b506008634d6f636b60e01b015f5560018054610037906100fc565b601f811161006a575b6008634d4f434b60e01b016001556002805460ff191660121790556040516105f990816101358239f35b60015f52601f0160051c7fb10e2d527612073b26eecdfd717e6a320cf44b4afac2b0732d9fcbe2b7fa0cf6908101905b8181106100a75750610040565b5f8155820161009a565b5f8052601f0160051c7f290decd9548b62a8d60345a988386fc84ba6bc95484008f6362f93160ef3e563908101905b8181106100ed575061001c565b5f81556001016100e0565b5f80fd5b90600182811c9216801561012a575b602083101461011657565b634e487b7160e01b5f52602260045260245ffd5b91607f169161010b56fe6080604081815260049182361015610015575f80fd5b5f3560e01c90816306fdde031461041057508063095ea7b3146103d057806323b872dd146102f7578063313ce567146102d657806340c10f191461029a57806370a082311461026357806395d89b4114610141578063a9059cbb146100cf5763dd62ed3e14610082575f80fd5b346100cb57806003193601126100cb5760209161009d61052e565b6100a5610544565b6001600160a01b039182165f908152928552838320911682528352819020549051908152f35b5f80fd5b50346100cb57806003193601126100cb576020906100eb61052e565b60243590335f526003845261010582845f2054101561055a565b335f5260038452825f2061011a838254610595565b905560018060a01b03165f5260038352610138825f209182546105b6565b90555160018152f35b50346100cb575f3660031901126100cb578051905f60018054908160011c9060018316928315610259575b60209384841081146102465783885290811561022a57506001146101d4575b505050829003601f01601f191682019267ffffffffffffffff8411838510176101c157508291826101bd9252826104e7565b0390f35b604190634e487b7160e01b5f525260245ffd5b60015f908152929350837fb10e2d527612073b26eecdfd717e6a320cf44b4afac2b0732d9fcbe2b7fa0cf65b83851061021657505050508301015f808061018b565b805488860183015293019284908201610200565b60ff1916878501525050151560051b84010190505f808061018b565b602289634e487b7160e01b5f525260245ffd5b91607f169161016c565b50346100cb5760203660031901126100cb576020906001600160a01b0361028861052e565b165f5260038252805f20549051908152f35b50346100cb57806003193601126100cb576001600160a01b036102bb61052e565b165f5260036020525f206102d260243582546105b6565b9055005b50346100cb575f3660031901126100cb5760209060ff600254169051908152f35b50346100cb5760603660031901126100cb5761031161052e565b610319610544565b906044359160018060a01b03809216805f52602095808752855f20335f528752855f20548581106103a1578561036491845f5260038a5261035f828a5f2054101561055a565b610595565b90825f528752855f20335f528752855f20555f5260038552835f2061038a848254610595565b9055165f5260038352610138825f209182546105b6565b865162461bcd60e51b81528083018990526009602482015268616c6c6f77616e636560b81b6044820152606490fd5b50346100cb57806003193601126100cb576020916103ec61052e565b90335f528352815f209060018060a01b03165f528252602435815f20555160018152f35b919050346100cb575f3660031901126100cb575f805460018160011c90600183169283156104dd575b60209384841081146102465783885290811561022a575060011461048957505050829003601f01601f191682019267ffffffffffffffff8411838510176101c157508291826101bd9252826104e7565b5f808052929350837f290decd9548b62a8d60345a988386fc84ba6bc95484008f6362f93160ef3e5635b8385106104c957505050508301015f808061018b565b8054888601830152930192849082016104b3565b91607f1691610439565b602080825282518183018190529093925f5b82811061051a57505060409293505f838284010152601f8019910116010190565b8181018601518482016040015285016104f9565b600435906001600160a01b03821682036100cb57565b602435906001600160a01b03821682036100cb57565b1561056157565b60405162461bcd60e51b815260206004820152600c60248201526b1a5b9cdd59999a58da595b9d60a21b6044820152606490fd5b919082039182116105a257565b634e487b7160e01b5f52601160045260245ffd5b919082018092116105a25756fea2646970667358221220cecb7a04a0e86f30582e72a1e923bfd33ef4d41cd3620ad55cbb885b1c5f6e0c64736f6c63430008180033","linkReferences":{}},"methodIdentifiers":{"allowance(address,address)":"dd62ed3e","approve(address,uint256)":"095ea7b3","balanceOf(address)":"70a08231","decimals()":"313ce567","mint(address,uint256)":"40c10f19","name()":"06fdde03","symbol()":"95d89b41","transfer(address,uint256)":"a9059cbb","transferFrom(address,address,uint256)":"23b872dd"},"id":21}