{"abi":[{"type":"function","name":"donate","inputs":[{"name":"token","type":"address","internalType":"address"},{"name":"to","type":"address","internalType":"address"},{"name":"amount","type":"uint256","internalType":"uint256"}],"outputs":[],"stateMutability":"nonpayable"}],"bytecode":{"object":"0x608080604052346100165761011c908161001b8239f35b5f80fdfe60808060405260043610156011575f80fd5b5f3560e01c63386bc05a146023575f80fd5b3460bd57606036600319011260bd576001600160a01b036004358181169081900360bd5760243591821680920360bd576044835f819360209563a9059cbb60e01b84526004840152833560248401525af1801560db57607e57005b60203d60201160d5575b601f8101601f1916820167ffffffffffffffff81118382101760c15760209183916040528101031260bd57518015150360bd57005b5f80fd5b634e487b7160e01b5f52604160045260245ffd5b503d6088565b6040513d5f823e3d90fdfea2646970667358221220258a87d4c13a7d26a06431d09477a6b3976b7645883c168bd596a4edc6591f1564736f6c63430008180033","linkReferences":{}},"methodIdentifiers":{"donate(address,address,uint256)":"386bc05a"},"id":22}