{"abi":[{"type":"function","name":"owner","inputs":[{"name":"node","type":"bytes32","internalType":"bytes32"}],"outputs":[{"name":"","type":"address","internalType":"address"}],"stateMutability":"view"},{"type":"function","name":"records","inputs":[{"name":"","type":"bytes32","internalType":"bytes32"}],"outputs":[{"name":"owner","type":"address","internalType":"address"},{"name":"resolver","type":"address","internalType":"address"},{"name":"ttl","type":"uint64","internalType":"uint64"}],"stateMutability":"view"},{"type":"function","name":"resolver","inputs":[{"name":"node","type":"bytes32","internalType":"bytes32"}],"outputs":[{"name":"","type":"address","internalType":"address"}],"stateMutability":"view"},{"type":"function","name":"setSubnodeRecord","inputs":[{"name":"node","type":"bytes32","internalType":"bytes32"},{"name":"label","type":"bytes32","internalType":"bytes32"},{"name":"owner","type":"address","internalType":"address"},{"name":"resolver","type":"address","internalType":"address"},{"name":"ttl","type":"uint64","internalType":"uint64"}],"outputs":[],"stateMutability":"nonpayable"}],"bytecode":{"object":"0x6080806040523461001657610250908161001b8239f35b5f80fdfe608060409080825260049081361015610016575f80fd5b5f3560e01c9081630178b8bf146101e75750806301e647251461019657806302571be31461016757635ef2c7f01461004c575f80fd5b346101635760a0366003190112610163576001600160a01b03604435818116908190036101635760643593828516809503610163576084359367ffffffffffffffff92838616809603610163578251906020820194833586526024358584015284835260608301958387108288111761015057868652835190209360c084019182118783101761013d5750849287949260a0926001989752865260808101998a52019687525f525f6020525f209151166bffffffffffffffffffffffff60a01b8254161781550192511682549167ffffffffffffffff60a01b905160a01b169163ffffffff60e01b16171790555f80f35b604190634e487b7160e01b5f525260245ffd5b604185634e487b7160e01b5f525260245ffd5b5f80fd5b50903461016357602036600319011261016357602091355f525f825260018060a01b03815f2054169051908152f35b50903461016357602036600319011261016357606091355f525f602052805f209067ffffffffffffffff60018060a01b036001818554169401549083519485528116602085015260a01c1690820152f35b905082346101635760203660031901126101635791355f9081526020818152929020600101546001600160a01b03168152f3fea264697066735822122057c6ebdebb22d19dc000df39f56f08ae9bd96efdd9f0adc28a99fa095a60758564736f6c63430008180033","linkReferences":{}},"methodIdentifiers":{"owner(bytes32)":"02571be3","records(bytes32)":"01e64725","resolver(bytes32)":"0178b8bf","setSubnodeRecord(bytes32,bytes32,address,address,uint64)":"5ef2c7f0"},"id":21}