{"abi":[{"type":"constructor","inputs":[{"name":"assetToken","type":"address","internalType":"address"},{"name":"initialAdmin","type":"address","internalType":"address"},{"name":"initialManagerRecipient","type":"address","internalType":"address"},{"name":"initialManagerFeeBps","type":"uint16","internalType":"uint16"}],"stateMutability":"nonpayable"},{"type":"receive","stateMutability":"payable"},{"type":"function","name":"MAX_BPS","inputs":[],"outputs":[{"name":"","type":"uint16","internalType":"uint16"}],"stateMutability":"view"},{"type":"function","name":"admin","inputs":[],"outputs":[{"name":"","type":"address","internalType":"address"}],"stateMutability":"view"},{"type":"function","name":"allowedTargets","inputs":[{"name":"","type":"address","internalType":"address"}],"outputs":[{"name":"","type":"bool","internalType":"bool"}],"stateMutability":"view"},{"type":"function","name":"asset","inputs":[],"outputs":[{"name":"","type":"address","internalType":"contract IERC20"}],"stateMutability":"view"},{"type":"function","name":"createVault","inputs":[{"name":"ownerFeeBps","type":"uint16","internalType":"uint16"}],"outputs":[{"name":"vaultId","type":"uint256","internalType":"uint256"}],"stateMutability":"nonpayable"},{"type":"function","name":"deposit","inputs":[{"name":"vaultId","type":"uint256","internalType":"uint256"},{"name":"assets","type":"uint256","internalType":"uint256"},{"name":"receiver","type":"address","internalType":"address"}],"outputs":[{"name":"mintedShares","type":"uint256","internalType":"uint256"}],"stateMutability":"nonpayable"},{"type":"function","name":"executeTrade","inputs":[{"name":"vaultId","type":"uint256","internalType":"uint256"},{"name":"target","type":"address","internalType":"address"},{"name":"value","type":"uint256","internalType":"uint256"},{"name":"data","type":"bytes","internalType":"bytes"},{"name":"minAssetDelta","type":"int256","internalType":"int256"}],"outputs":[{"name":"assetDelta","type":"int256","internalType":"int256"}],"stateMutability":"nonpayable"},{"type":"function","name":"getUserPosition","inputs":[{"name":"vaultId","type":"uint256","internalType":"uint256"},{"name":"user","type":"address","internalType":"address"}],"outputs":[{"name":"shares","type":"uint256","internalType":"uint256"},{"name":"principal","type":"uint256","internalType":"uint256"},{"name":"estimatedAssets","type":"uint256","internalType":"uint256"}],"stateMutability":"view"},{"type":"function","name":"managerFeeBps","inputs":[],"outputs":[{"name":"","type":"uint16","internalType":"uint16"}],"stateMutability":"view"},{"type":"function","name":"managerRecipient","inputs":[],"outputs":[{"name":"","type":"address","internalType":"address"}],"stateMutability":"view"},{"type":"function","name":"paused","inputs":[],"outputs":[{"name":"","type":"bool","internalType":"bool"}],"stateMutability":"view"},{"type":"function","name":"previewDeposit","inputs":[{"name":"vaultId","type":"uint256","internalType":"uint256"},{"name":"assets","type":"uint256","internalType":"uint256"}],"outputs":[{"name":"","type":"uint256","internalType":"uint256"}],"stateMutability":"view"},{"type":"function","name":"previewWithdraw","inputs":[{"name":"vaultId","type":"uint256","internalType":"uint256"},{"name":"sharesAmount","type":"uint256","internalType":"uint256"}],"outputs":[{"name":"","type":"uint256","internalType":"uint256"}],"stateMutability":"view"},{"type":"function","name":"setAllowedTarget","inputs":[{"name":"target","type":"address","internalType":"address"},{"name":"allowed","type":"bool","internalType":"bool"}],"outputs":[],"stateMutability":"nonpayable"},{"type":"function","name":"setManagerFeeBps","inputs":[{"name":"newManagerFeeBps","type":"uint16","internalType":"uint16"}],"outputs":[],"stateMutability":"nonpayable"},{"type":"function","name":"setManagerRecipient","inputs":[{"name":"newManagerRecipient","type":"address","internalType":"address"}],"outputs":[],"stateMutability":"nonpayable"},{"type":"function","name":"setPaused","inputs":[{"name":"isPaused","type":"bool","internalType":"bool"}],"outputs":[],"stateMutability":"nonpayable"},{"type":"function","name":"setVaultOwnerFeeBps","inputs":[{"name":"vaultId","type":"uint256","internalType":"uint256"},{"name":"ownerFeeBps","type":"uint16","internalType":"uint16"}],"outputs":[],"stateMutability":"nonpayable"},{"type":"function","name":"transferAdmin","inputs":[{"name":"newAdmin","type":"address","internalType":"address"}],"outputs":[],"stateMutability":"nonpayable"},{"type":"function","name":"userPrincipal","inputs":[{"name":"","type":"uint256","internalType":"uint256"},{"name":"","type":"address","internalType":"address"}],"outputs":[{"name":"","type":"uint256","internalType":"uint256"}],"stateMutability":"view"},{"type":"function","name":"userShares","inputs":[{"name":"","type":"uint256","internalType":"uint256"},{"name":"","type":"address","internalType":"address"}],"outputs":[{"name":"","type":"uint256","internalType":"uint256"}],"stateMutability":"view"},{"type":"function","name":"vaultCount","inputs":[],"outputs":[{"name":"","type":"uint256","internalType":"uint256"}],"stateMutability":"view"},{"type":"function","name":"vaults","inputs":[{"name":"","type":"uint256","internalType":"uint256"}],"outputs":[{"name":"owner","type":"address","internalType":"address"},{"name":"ownerFeeBps","type":"uint16","internalType":"uint16"},{"name":"totalShares","type":"uint256","internalType":"uint256"},{"name":"totalAssets","type":"uint256","internalType":"uint256"},{"name":"exists","type":"bool","internalType":"bool"}],"stateMutability":"view"},{"type":"function","name":"withdraw","inputs":[{"name":"vaultId","type":"uint256","internalType":"uint256"},{"name":"burnedShares","type":"uint256","internalType":"uint256"},{"name":"receiver","type":"address","internalType":"address"}],"outputs":[{"name":"userAssets","type":"uint256","internalType":"uint256"}],"stateMutability":"nonpayable"},{"type":"event","name":"AdminTransferred","inputs":[{"name":"previousAdmin","type":"address","indexed":true,"internalType":"address"},{"name":"newAdmin","type":"address","indexed":true,"internalType":"address"}],"anonymous":false},{"type":"event","name":"Deposited","inputs":[{"name":"vaultId","type":"uint256","indexed":true,"internalType":"uint256"},{"name":"sender","type":"address","indexed":true,"internalType":"address"},{"name":"receiver","type":"address","indexed":true,"internalType":"address"},{"name":"assets","type":"uint256","indexed":false,"internalType":"uint256"},{"name":"mintedShares","type":"uint256","indexed":false,"internalType":"uint256"}],"anonymous":false},{"type":"event","name":"ManagerFeeUpdated","inputs":[{"name":"managerFeeBps","type":"uint16","indexed":false,"internalType":"uint16"}],"anonymous":false},{"type":"event","name":"ManagerRecipientUpdated","inputs":[{"name":"previousRecipient","type":"address","indexed":true,"internalType":"address"},{"name":"newRecipient","type":"address","indexed":true,"internalType":"address"}],"anonymous":false},{"type":"event","name":"OwnerFeeUpdated","inputs":[{"name":"vaultId","type":"uint256","indexed":true,"internalType":"uint256"},{"name":"ownerFeeBps","type":"uint16","indexed":false,"internalType":"uint16"}],"anonymous":false},{"type":"event","name":"PauseUpdated","inputs":[{"name":"paused","type":"bool","indexed":false,"internalType":"bool"}],"anonymous":false},{"type":"event","name":"TargetUpdated","inputs":[{"name":"target","type":"address","indexed":true,"internalType":"address"},{"name":"allowed","type":"bool","indexed":false,"internalType":"bool"}],"anonymous":false},{"type":"event","name":"TradeExecuted","inputs":[{"name":"vaultId","type":"uint256","indexed":true,"internalType":"uint256"},{"name":"target","type":"address","indexed":true,"internalType":"address"},{"name":"assetDelta","type":"int256","indexed":false,"internalType":"int256"},{"name":"beforeBalance","type":"uint256","indexed":false,"internalType":"uint256"},{"name":"afterBalance","type":"uint256","indexed":false,"internalType":"uint256"},{"name":"data","type":"bytes","indexed":false,"internalType":"bytes"}],"anonymous":false},{"type":"event","name":"VaultCreated","inputs":[{"name":"vaultId","type":"uint256","indexed":true,"internalType":"uint256"},{"name":"owner","type":"address","indexed":true,"internalType":"address"},{"name":"ownerFeeBps","type":"uint16","indexed":false,"internalType":"uint16"}],"anonymous":false},{"type":"event","name":"Withdrawn","inputs":[{"name":"vaultId","type":"uint256","indexed":true,"internalType":"uint256"},{"name":"user","type":"address","indexed":true,"internalType":"address"},{"name":"receiver","type":"address","indexed":true,"internalType":"address"},{"name":"grossAssets","type":"uint256","indexed":false,"internalType":"uint256"},{"name":"userAssets","type":"uint256","indexed":false,"internalType":"uint256"},{"name":"ownerFee","type":"uint256","indexed":false,"internalType":"uint256"},{"name":"managerFee","type":"uint256","indexed":false,"internalType":"uint256"},{"name":"burnedShares","type":"uint256","indexed":false,"internalType":"uint256"},{"name":"realizedProfit","type":"uint256","indexed":false,"internalType":"uint256"}],"anonymous":false}],"bytecode":{"object":"0x60a0346200026d57601f62001a0938819003918201601f1916830191906001600160401b03831184841017620002715781608092859260409586528339810103126200026d57620000508262000285565b916020906200006182820162000285565b9360606200007185840162000285565b92015161ffff8116918282036200026d576001600160a01b039081169687156200023f578116938415620002115716908115620001e15761271083116200019d576080969096525f80546001600160a01b0319168417815560018054600162ffff0160a01b031916831760a89890981b61ffff60a81b1697909717909655845194957f20e129319e4c2deef82634fd7c4a88a701f56166ca04508c70748f063f84605a9593907ff8ccb027dfcd135e000e9d45e6cc2d662578a8825d4c45b5e32e0adf67e79ec68180a35f7f079ff2d4b4a356b82422ba2495377a26ec26adee2cbd3665a2b5d6ad623bf0a88180a38152a15161176e90816200029b82396080518181816103b501528181610a7f01528181610e96015281816110bb01528181611139015261116a0152f35b855162461bcd60e51b815260048101869052601460248201527f6d616e616765722066656520746f6f20686967680000000000000000000000006044820152606490fd5b855162461bcd60e51b815260048101869052600960248201526806d616e616765723d360bc1b6044820152606490fd5b865162461bcd60e51b8152600481018790526007602482015266061646d696e3d360cc1b6044820152606490fd5b865162461bcd60e51b8152600481018790526007602482015266061737365743d360cc1b6044820152606490fd5b5f80fd5b634e487b7160e01b5f52604160045260245ffd5b51906001600160a01b03821682036200026d5756fe6080604090808252600480361015610021575b505050361561001f575f80fd5b005b5f3560e01c9182630947e8c7146112c7575081630ad58d2f14610f3d57816316c38b3c14610ec557816338d52e0f14610e82578163488bd7b014610e655781635c975abb14610e3f57816375829def14610d9c5781637a7af70d14610d715781637fb5080f14610cb15781638477994114610c72578163869da9db14610bfb5781638c64ea4a14610b9c5781638dbdbe6d1461095d5781639284f3ba1461087c578163a7c6a1001461085e578163aa2510dc146107ae578163ad9548781461076f578163b8fe8d5f14610733578163ca1dd22e14610670578163cc17d35b146102f8578163d3e62502146102d0578163e25fba461461017d57508063f851a440146101565763fd967f4714610137578080610012565b34610152575f36600319011261015257602090516127108152f35b5f80fd5b5034610152575f366003190112610152575f5490516001600160a01b039091168152602090f35b823461015257602036600319011261015257610197611354565b906101aa60ff60015460a01c1615611365565b61ffff8092166101be6127108211156114d9565b6003545f1981146102bd57600101928360035582519060a0820182811067ffffffffffffffff8211176102aa57845233825260208281018481525f868501818152606086018281526001608088019081528a84529a8552918890209551865493516001600160b01b03199094166001600160a01b0391909116179290941660a01b61ffff60a01b16919091178455909661027993926003929051600185015551600284015551151591019060ff801983541691151516179055565b8151908152827f695c00457b931c694c373bab213807a5dd4e8d11712c92bd047c88874a8b645a853393a351908152f35b604187634e487b7160e01b5f525260245ffd5b601185634e487b7160e01b5f525260245ffd5b8234610152575f3660031901126101525760015490516001600160a01b039091168152602090f35b82346101525760a0366003190112610152578135906103156112fe565b926064359267ffffffffffffffff9485851161015257366023860112156101525784830135958611610152576024908186019582883692010111610152575f546001600160a01b03979061036c90891633146114a1565b61037e60ff60015460a01c1615611365565b61038a6007541561139a565b60016007556103988461158f565b9688831695865f5260209960028b5260ff895f20541615610639577f000000000000000000000000000000000000000000000000000000000000000016948851946370a0823160e01b9081875230848801528c8784818b5afa96871561062f575f97610600575b505f80918c5188888237808981018481520391604435905af1610420611550565b50156105d0578b90828b5180998193825230878301525afa9586156105c6575f96610597575b5084861061050957600261045a8688611487565b9a016104678b8254611494565b90555b6084358a126104dc575050918160a0927f2ccde4721438ce545a8a26a34701417e5d45f606050f78db5aaf51dcbd4c32ad959489519586948c86528d8601528a85015260806060850152816080850152848401375f828201840152601f01601f19168101030190a35f60075551908152f35b885162461bcd60e51b81529182018b905260089082015267736c69707061676560c01b6044820152606490fd5b6105138686611487565b600160ff1b8114610584576002815f039b01908154818110610540579061053991611487565b905561046a565b5050895162461bcd60e51b81528084018d90526019818401527f6c6f73732065786365656473207661756c7420617373657473000000000000006044820152606490fd5b50634e487b7160e01b5f90815260118352fd5b9095508a81813d83116105bf575b6105af818361151a565b810103126101525751948b610446565b503d6105a5565b89513d5f823e3d90fd5b895162461bcd60e51b81528084018d9052600b818401526a1cddd85c0819985a5b195960aa1b6044820152606490fd5b9096508c81813d8311610628575b610618818361151a565b810103126101525751955f6103ff565b503d61060e565b8b513d5f823e3d90fd5b885162461bcd60e51b81528083018c9052601281880152711d185c99d95d081b9bdd08185b1b1bddd95960721b6044820152606490fd5b82346101525780600319360112610152576106896112e8565b9060243580151592838203610152575f546001600160a01b0391906106b190831633146114a1565b169384156107055750916020916106fe7fd5cc69c3fd825b34b369396f105ab7c13b09d888d513418c0e02a42db313399994865f5260028552825f209060ff801983541691151516179055565b51908152a2005b606490602084519162461bcd60e51b8352820152600860248201526707461726765743d360c41b6044820152fd5b8234610152576020366003190112610152576020906001600160a01b036107586112e8565b165f526002825260ff815f20541690519015158152f35b823461015257806003193601126101525760209161078b6112fe565b90355f5260058352815f209060018060a01b03165f528252805f20549051908152f35b905034610152576020366003190112610152576107c96112e8565b5f546001600160a01b03929183916107e490831633146114a1565b1692831561082f575050600154826bffffffffffffffffffffffff60a01b821617600155167f079ff2d4b4a356b82422ba2495377a26ec26adee2cbd3665a2b5d6ad623bf0a85f80a3005b906020606492519162461bcd60e51b8352820152600960248201526806d616e616765723d360bc1b6044820152fd5b8234610152575f366003190112610152576020906003549051908152f35b90503461015257816003193601126101525780359160243561ffff811692838203610152576108b360ff60015460a01c1615611365565b6108bc8561158f565b80549091906001600160a01b031633036109285750916106fe84926020946109096127107fbb919b9006e69a2d15c343818cf6da3b9d4003cda19415f68615d523ad8c6ce89811156114d9565b805461ffff60a01b191660a09290921b61ffff60a01b16919091179055565b606490602085519162461bcd60e51b8352820152600f60248201526e3737ba103b30bab63a1037bbb732b960891b6044820152fd5b9050346101525761096d36611314565b9391929061098360ff60015460a01c1615611365565b61098f6007541561139a565b600160075561099d8461158f565b6001600160a01b03959094908616926109b78415156113d2565b6109c283151561140b565b6109cc8387611702565b958615610b6b57806001600292016109e5898254611494565b9055016109f3848254611494565b9055815f5260209660058852855f20855f528852855f20610a15888254611494565b9055825f5260068852855f20855f528852855f20610a34858254611494565b90558551888101906323b872dd60e01b82523360248201523060448201528560648201526064815260a0810181811067ffffffffffffffff821117610b58578852515f9283929083907f0000000000000000000000000000000000000000000000000000000000000000165af1610aa9611550565b81610b28575b5015610aef5750835191825284868301527fefd7bb4f992963087670aa168590baee24d227ff5c18ae3790ef7ec22bde6274843393a45f60075551908152f35b845162461bcd60e51b815290810187905260136024820152721d1c985b9cd9995c919c9bdb4819985a5b1959606a1b6044820152606490fd5b80518015925089908315610b40575b5050505f610aaf565b610b50935082018101910161161a565b5f8881610b37565b604185634e487b7160e01b5f525260245ffd5b855162461bcd60e51b8152602081840152600b60248201526a7a65726f2073686172657360a81b6044820152606490fd5b8234610152576020366003190112610152578160a092355f52602052805f2090815491600181015460ff60036002840154930154169261ffff815195600180891b0381168752871c166020860152840152606083015215156080820152f35b82346101525780600319360112610152576060913590610c196112fe565b90610c238361158f565b91835f526005602052815f209060018060a01b031690815f52602052815f2054935f526006602052815f20905f52602052610c6283825f2054936115e1565b9181519384526020840152820152f35b8234610152578060031936011261015257602091610c8e6112fe565b90355f5260068352815f209060018060a01b03165f528252805f20549051908152f35b90503461015257602036600319011261015257610ccc611354565b610ce060018060a01b035f541633146114a1565b61ffff8116916127108311610d37576001805461ffff60a81b191660a884901b61ffff60a81b1617905583518381527f20e129319e4c2deef82634fd7c4a88a701f56166ca04508c70748f063f84605a90602090a1005b606490602085519162461bcd60e51b835282015260146024820152730dac2dcc2cecae440cccaca40e8dede40d0d2ced60631b6044820152fd5b823461015257602090610d95610d90610d893661133e565b919061158f565b611702565b9051908152f35b90503461015257602036600319011261015257610db76112e8565b5f546001600160a01b03808216939192610dd23386146114a1565b16938415610e125750506001600160a01b03191682175f9081557ff8ccb027dfcd135e000e9d45e6cc2d662578a8825d4c45b5e32e0adf67e79ec69080a3005b906020606492519162461bcd60e51b83528201526007602482015266061646d696e3d360cc1b6044820152fd5b8234610152575f3660031901126101525760209060ff60015460a01c1690519015158152f35b823461015257602090610d95610e7d610d893661133e565b6115e1565b8234610152575f36600319011261015257517f00000000000000000000000000000000000000000000000000000000000000006001600160a01b03168152602090f35b905034610152576020366003190112610152573590811515809203610152577f77860e247ab9186dbe64e5bd0e0b93273cc4273e01818420e788f500078886f591602091610f1d60018060a01b035f541633146114a1565b6001805460ff60a01b191660a084901b60ff60a01b1617905551908152a1005b90503461015257610f4d36611314565b939192610f6260ff60015460a01c1615611365565b610f6e6007541561139a565b6001600755610f7c8461158f565b6001600160a01b039486861693909190610f978515156113d2565b801561129957825f5260209760058952865f20335f528952865f20549482861061126057610fc583856115e1565b95610fd187151561140b565b60028501918783541061121d5750906110308492875f5260068d528a5f20335f528d528a5f20548d61101761100f8461100a8986611442565b611469565b968794611487565b908a5f52600581528d5f2090335f52528c5f2055611487565b865f5260068c52895f20335f528c52895f205560018501611052858254611487565b905561105f878254611487565b905580861115611215576110739086611487565b925b5f915f9154908a821691823314158061120c575b611196575b50906110e0916110a7856110a2868c611487565b611487565b9b8c928580611163575b50508561112d575b7f000000000000000000000000000000000000000000000000000000000000000016611632565b8751958652888a870152878601526060850152608084015260a08301527f04a8e976c4c86263a680807dde8ea7da3253fd624290146ee93ef20131372d8960c03393a45f60075551908152f35b61115e868260015416837f000000000000000000000000000000000000000000000000000000000000000016611632565b6110b9565b61118f91837f000000000000000000000000000000000000000000000000000000000000000016611632565b5f856110b1565b925092506127106111c2816111b361ffff809660a01c1689611442565b049360015460a81c1687611442565b0492856111cf8585611494565b116111db575b5f61108e565b925090848111156111f757506110e084915f935b9091506111d5565b906110e0906112068387611487565b936111ef565b50861515611089565b505f92611075565b895162461bcd60e51b81529081018c9052601960248201527f696e73756666696369656e74207661756c7420617373657473000000000000006044820152606490fd5b875162461bcd60e51b81529081018a90526013602482015272696e73756666696369656e742073686172657360681b6044820152606490fd5b855162461bcd60e51b8152602081860152600860248201526707368617265733d360c41b6044820152606490fd5b34610152575f3660031901126101525760209061ffff60015460a81c168152f35b600435906001600160a01b038216820361015257565b602435906001600160a01b038216820361015257565b60609060031901126101525760043590602435906044356001600160a01b03811681036101525790565b6040906003190112610152576004359060243590565b6004359061ffff8216820361015257565b1561136c57565b60405162461bcd60e51b81526020600482015260066024820152651c185d5cd95960d21b6044820152606490fd5b156113a157565b60405162461bcd60e51b81526020600482015260096024820152681c99595b9d1c985b9d60ba1b6044820152606490fd5b156113d957565b60405162461bcd60e51b815260206004820152600a602482015269072656365697665723d360b41b6044820152606490fd5b1561141257565b60405162461bcd60e51b815260206004820152600860248201526706173736574733d360c41b6044820152606490fd5b8181029291811591840414171561145557565b634e487b7160e01b5f52601160045260245ffd5b8115611473570490565b634e487b7160e01b5f52601260045260245ffd5b9190820391821161145557565b9190820180921161145557565b156114a857565b60405162461bcd60e51b81526020600482015260096024820152683737ba1030b236b4b760b91b6044820152606490fd5b156114e057565b60405162461bcd60e51b81526020600482015260126024820152710deeedccae440cccaca40e8dede40d0d2ced60731b6044820152606490fd5b90601f8019910116810190811067ffffffffffffffff82111761153c57604052565b634e487b7160e01b5f52604160045260245ffd5b3d1561158a573d9067ffffffffffffffff821161153c576040519161157f601f8201601f19166020018461151a565b82523d5f602084013e565b606090565b5f52600460205260405f209060ff600383015416156115aa57565b60405162461bcd60e51b815260206004820152600f60248201526e1d985d5b1d081b9bdd08199bdd5b99608a1b6044820152606490fd5b6001810154908115801561160e575b6116095761160692600261100a92015490611442565b90565b505090565b506002810154156115f0565b90816020910312610152575180151581036101525790565b60405163a9059cbb60e01b602082019081526001600160a01b03909316602482015260448082019490945292835260808301929167ffffffffffffffff84118385101761153c575f809493819460405251925af161168e611550565b816116d3575b501561169c57565b60405162461bcd60e51b815260206004820152600f60248201526e1d1c985b9cd9995c8819985a5b1959608a1b6044820152606490fd5b80518015925082156116e8575b50505f611694565b6116fb925060208091830101910161161a565b5f806116e0565b60018101548015801561172c575b6116095761172360029161160694611442565b91015490611469565b5060028201541561171056fea26469706673582212206544e9d7bec8105ba88345d7da224cf49b5ef4600907e6c4c20d0f73b10449a864736f6c63430008180033","linkReferences":{}},"methodIdentifiers":{"MAX_BPS()":"fd967f47","admin()":"f851a440","allowedTargets(address)":"b8fe8d5f","asset()":"38d52e0f","createVault(uint16)":"e25fba46","deposit(uint256,uint256,address)":"8dbdbe6d","executeTrade(uint256,address,uint256,bytes,int256)":"cc17d35b","getUserPosition(uint256,address)":"869da9db","managerFeeBps()":"0947e8c7","managerRecipient()":"d3e62502","paused()":"5c975abb","previewDeposit(uint256,uint256)":"7a7af70d","previewWithdraw(uint256,uint256)":"488bd7b0","setAllowedTarget(address,bool)":"ca1dd22e","setManagerFeeBps(uint16)":"7fb5080f","setManagerRecipient(address)":"aa2510dc","setPaused(bool)":"16c38b3c","setVaultOwnerFeeBps(uint256,uint16)":"9284f3ba","transferAdmin(address)":"75829def","userPrincipal(uint256,address)":"84779941","userShares(uint256,address)":"ad954878","vaultCount()":"a7c6a100","vaults(uint256)":"8c64ea4a","withdraw(uint256,uint256,address)":"0ad58d2f"},"id":0}