{"abi":[{"type":"constructor","inputs":[{"name":"assetToken","type":"address","internalType":"address"},{"name":"initialAdmin","type":"address","internalType":"address"},{"name":"initialManagerRecipient","type":"address","internalType":"address"},{"name":"initialManagerFeeBps","type":"uint16","internalType":"uint16"}],"stateMutability":"nonpayable"},{"type":"receive","stateMutability":"payable"},{"type":"function","name":"MAX_BPS","inputs":[],"outputs":[{"name":"","type":"uint16","internalType":"uint16"}],"stateMutability":"view"},{"type":"function","name":"admin","inputs":[],"outputs":[{"name":"","type":"address","internalType":"address"}],"stateMutability":"view"},{"type":"function","name":"allowedTargets","inputs":[{"name":"","type":"address","internalType":"address"}],"outputs":[{"name":"","type":"bool","internalType":"bool"}],"stateMutability":"view"},{"type":"function","name":"asset","inputs":[],"outputs":[{"name":"","type":"address","internalType":"contract IERC20"}],"stateMutability":"view"},{"type":"function","name":"createVault","inputs":[{"name":"ownerFeeBps","type":"uint16","internalType":"uint16"}],"outputs":[{"name":"vaultId","type":"uint256","internalType":"uint256"}],"stateMutability":"nonpayable"},{"type":"function","name":"deposit","inputs":[{"name":"vaultId","type":"uint256","internalType":"uint256"},{"name":"assets","type":"uint256","internalType":"uint256"},{"name":"receiver","type":"address","internalType":"address"}],"outputs":[{"name":"mintedShares","type":"uint256","internalType":"uint256"}],"stateMutability":"nonpayable"},{"type":"function","name":"ensNodeVaultId","inputs":[{"name":"","type":"bytes32","internalType":"bytes32"}],"outputs":[{"name":"","type":"uint256","internalType":"uint256"}],"stateMutability":"view"},{"type":"function","name":"ensParentNode","inputs":[],"outputs":[{"name":"","type":"bytes32","internalType":"bytes32"}],"stateMutability":"view"},{"type":"function","name":"ensRegistry","inputs":[],"outputs":[{"name":"","type":"address","internalType":"address"}],"stateMutability":"view"},{"type":"function","name":"ensResolver","inputs":[],"outputs":[{"name":"","type":"address","internalType":"address"}],"stateMutability":"view"},{"type":"function","name":"executeTrade","inputs":[{"name":"vaultId","type":"uint256","internalType":"uint256"},{"name":"target","type":"address","internalType":"address"},{"name":"value","type":"uint256","internalType":"uint256"},{"name":"data","type":"bytes","internalType":"bytes"},{"name":"minAssetDelta","type":"int256","internalType":"int256"}],"outputs":[{"name":"assetDelta","type":"int256","internalType":"int256"}],"stateMutability":"nonpayable"},{"type":"function","name":"getUserPosition","inputs":[{"name":"vaultId","type":"uint256","internalType":"uint256"},{"name":"user","type":"address","internalType":"address"}],"outputs":[{"name":"shares","type":"uint256","internalType":"uint256"},{"name":"principal","type":"uint256","internalType":"uint256"},{"name":"estimatedAssets","type":"uint256","internalType":"uint256"}],"stateMutability":"view"},{"type":"function","name":"getVaultEnsRecord","inputs":[{"name":"vaultId","type":"uint256","internalType":"uint256"}],"outputs":[{"name":"node","type":"bytes32","internalType":"bytes32"},{"name":"label","type":"string","internalType":"string"}],"stateMutability":"view"},{"type":"function","name":"managerFeeBps","inputs":[],"outputs":[{"name":"","type":"uint16","internalType":"uint16"}],"stateMutability":"view"},{"type":"function","name":"managerRecipient","inputs":[],"outputs":[{"name":"","type":"address","internalType":"address"}],"stateMutability":"view"},{"type":"function","name":"paused","inputs":[],"outputs":[{"name":"","type":"bool","internalType":"bool"}],"stateMutability":"view"},{"type":"function","name":"previewDeposit","inputs":[{"name":"vaultId","type":"uint256","internalType":"uint256"},{"name":"assets","type":"uint256","internalType":"uint256"}],"outputs":[{"name":"","type":"uint256","internalType":"uint256"}],"stateMutability":"view"},{"type":"function","name":"previewWithdraw","inputs":[{"name":"vaultId","type":"uint256","internalType":"uint256"},{"name":"sharesAmount","type":"uint256","internalType":"uint256"}],"outputs":[{"name":"","type":"uint256","internalType":"uint256"}],"stateMutability":"view"},{"type":"function","name":"registerVaultEns","inputs":[{"name":"vaultId","type":"uint256","internalType":"uint256"},{"name":"label","type":"string","internalType":"string"}],"outputs":[{"name":"node","type":"bytes32","internalType":"bytes32"}],"stateMutability":"nonpayable"},{"type":"function","name":"setAllowedTarget","inputs":[{"name":"target","type":"address","internalType":"address"},{"name":"allowed","type":"bool","internalType":"bool"}],"outputs":[],"stateMutability":"nonpayable"},{"type":"function","name":"setEnsConfig","inputs":[{"name":"registry","type":"address","internalType":"address"},{"name":"resolver","type":"address","internalType":"address"},{"name":"parentNode","type":"bytes32","internalType":"bytes32"}],"outputs":[],"stateMutability":"nonpayable"},{"type":"function","name":"setManagerFeeBps","inputs":[{"name":"newManagerFeeBps","type":"uint16","internalType":"uint16"}],"outputs":[],"stateMutability":"nonpayable"},{"type":"function","name":"setManagerRecipient","inputs":[{"name":"newManagerRecipient","type":"address","internalType":"address"}],"outputs":[],"stateMutability":"nonpayable"},{"type":"function","name":"setPaused","inputs":[{"name":"isPaused","type":"bool","internalType":"bool"}],"outputs":[],"stateMutability":"nonpayable"},{"type":"function","name":"setVaultEnsText","inputs":[{"name":"vaultId","type":"uint256","internalType":"uint256"},{"name":"key","type":"string","internalType":"string"},{"name":"value","type":"string","internalType":"string"}],"outputs":[],"stateMutability":"nonpayable"},{"type":"function","name":"setVaultEnsTexts","inputs":[{"name":"vaultId","type":"uint256","internalType":"uint256"},{"name":"keys","type":"string[]","internalType":"string[]"},{"name":"values","type":"string[]","internalType":"string[]"}],"outputs":[],"stateMutability":"nonpayable"},{"type":"function","name":"setVaultOwnerFeeBps","inputs":[{"name":"vaultId","type":"uint256","internalType":"uint256"},{"name":"ownerFeeBps","type":"uint16","internalType":"uint16"}],"outputs":[],"stateMutability":"nonpayable"},{"type":"function","name":"transferAdmin","inputs":[{"name":"newAdmin","type":"address","internalType":"address"}],"outputs":[],"stateMutability":"nonpayable"},{"type":"function","name":"userPrincipal","inputs":[{"name":"","type":"uint256","internalType":"uint256"},{"name":"","type":"address","internalType":"address"}],"outputs":[{"name":"","type":"uint256","internalType":"uint256"}],"stateMutability":"view"},{"type":"function","name":"userShares","inputs":[{"name":"","type":"uint256","internalType":"uint256"},{"name":"","type":"address","internalType":"address"}],"outputs":[{"name":"","type":"uint256","internalType":"uint256"}],"stateMutability":"view"},{"type":"function","name":"vaultCount","inputs":[],"outputs":[{"name":"","type":"uint256","internalType":"uint256"}],"stateMutability":"view"},{"type":"function","name":"vaultEnsLabel","inputs":[{"name":"","type":"uint256","internalType":"uint256"}],"outputs":[{"name":"","type":"string","internalType":"string"}],"stateMutability":"view"},{"type":"function","name":"vaultEnsNode","inputs":[{"name":"","type":"uint256","internalType":"uint256"}],"outputs":[{"name":"","type":"bytes32","internalType":"bytes32"}],"stateMutability":"view"},{"type":"function","name":"vaults","inputs":[{"name":"","type":"uint256","internalType":"uint256"}],"outputs":[{"name":"owner","type":"address","internalType":"address"},{"name":"ownerFeeBps","type":"uint16","internalType":"uint16"},{"name":"totalShares","type":"uint256","internalType":"uint256"},{"name":"totalAssets","type":"uint256","internalType":"uint256"},{"name":"exists","type":"bool","internalType":"bool"}],"stateMutability":"view"},{"type":"function","name":"withdraw","inputs":[{"name":"vaultId","type":"uint256","internalType":"uint256"},{"name":"burnedShares","type":"uint256","internalType":"uint256"},{"name":"receiver","type":"address","internalType":"address"}],"outputs":[{"name":"userAssets","type":"uint256","internalType":"uint256"}],"stateMutability":"nonpayable"},{"type":"event","name":"AdminTransferred","inputs":[{"name":"previousAdmin","type":"address","indexed":true,"internalType":"address"},{"name":"newAdmin","type":"address","indexed":true,"internalType":"address"}],"anonymous":false},{"type":"event","name":"Deposited","inputs":[{"name":"vaultId","type":"uint256","indexed":true,"internalType":"uint256"},{"name":"sender","type":"address","indexed":true,"internalType":"address"},{"name":"receiver","type":"address","indexed":true,"internalType":"address"},{"name":"assets","type":"uint256","indexed":false,"internalType":"uint256"},{"name":"mintedShares","type":"uint256","indexed":false,"internalType":"uint256"}],"anonymous":false},{"type":"event","name":"EnsConfigUpdated","inputs":[{"name":"registry","type":"address","indexed":true,"internalType":"address"},{"name":"resolver","type":"address","indexed":true,"internalType":"address"},{"name":"parentNode","type":"bytes32","indexed":true,"internalType":"bytes32"}],"anonymous":false},{"type":"event","name":"ManagerFeeUpdated","inputs":[{"name":"managerFeeBps","type":"uint16","indexed":false,"internalType":"uint16"}],"anonymous":false},{"type":"event","name":"ManagerRecipientUpdated","inputs":[{"name":"previousRecipient","type":"address","indexed":true,"internalType":"address"},{"name":"newRecipient","type":"address","indexed":true,"internalType":"address"}],"anonymous":false},{"type":"event","name":"OwnerFeeUpdated","inputs":[{"name":"vaultId","type":"uint256","indexed":true,"internalType":"uint256"},{"name":"ownerFeeBps","type":"uint16","indexed":false,"internalType":"uint16"}],"anonymous":false},{"type":"event","name":"PauseUpdated","inputs":[{"name":"paused","type":"bool","indexed":false,"internalType":"bool"}],"anonymous":false},{"type":"event","name":"TargetUpdated","inputs":[{"name":"target","type":"address","indexed":true,"internalType":"address"},{"name":"allowed","type":"bool","indexed":false,"internalType":"bool"}],"anonymous":false},{"type":"event","name":"TradeExecuted","inputs":[{"name":"vaultId","type":"uint256","indexed":true,"internalType":"uint256"},{"name":"target","type":"address","indexed":true,"internalType":"address"},{"name":"assetDelta","type":"int256","indexed":false,"internalType":"int256"},{"name":"beforeBalance","type":"uint256","indexed":false,"internalType":"uint256"},{"name":"afterBalance","type":"uint256","indexed":false,"internalType":"uint256"},{"name":"data","type":"bytes","indexed":false,"internalType":"bytes"}],"anonymous":false},{"type":"event","name":"VaultCreated","inputs":[{"name":"vaultId","type":"uint256","indexed":true,"internalType":"uint256"},{"name":"owner","type":"address","indexed":true,"internalType":"address"},{"name":"ownerFeeBps","type":"uint16","indexed":false,"internalType":"uint16"}],"anonymous":false},{"type":"event","name":"VaultEnsRegistered","inputs":[{"name":"vaultId","type":"uint256","indexed":true,"internalType":"uint256"},{"name":"node","type":"bytes32","indexed":true,"internalType":"bytes32"},{"name":"label","type":"string","indexed":false,"internalType":"string"}],"anonymous":false},{"type":"event","name":"VaultEnsTextUpdated","inputs":[{"name":"vaultId","type":"uint256","indexed":true,"internalType":"uint256"},{"name":"node","type":"bytes32","indexed":true,"internalType":"bytes32"},{"name":"key","type":"string","indexed":false,"internalType":"string"},{"name":"value","type":"string","indexed":false,"internalType":"string"}],"anonymous":false},{"type":"event","name":"Withdrawn","inputs":[{"name":"vaultId","type":"uint256","indexed":true,"internalType":"uint256"},{"name":"user","type":"address","indexed":true,"internalType":"address"},{"name":"receiver","type":"address","indexed":true,"internalType":"address"},{"name":"grossAssets","type":"uint256","indexed":false,"internalType":"uint256"},{"name":"userAssets","type":"uint256","indexed":false,"internalType":"uint256"},{"name":"ownerFee","type":"uint256","indexed":false,"internalType":"uint256"},{"name":"managerFee","type":"uint256","indexed":false,"internalType":"uint256"},{"name":"burnedShares","type":"uint256","indexed":false,"internalType":"uint256"},{"name":"realizedProfit","type":"uint256","indexed":false,"internalType":"uint256"}],"anonymous":false}],"bytecode":{"object":"0x60a0346200026d57601f620026dc38819003918201601f1916830191906001600160401b03831184841017620002715781608092859260409586528339810103126200026d57620000508262000285565b916020906200006182820162000285565b9360606200007185840162000285565b92015161ffff8116918282036200026d576001600160a01b039081169687156200023f578116938415620002115716908115620001e15761271083116200019d576080969096525f80546001600160a01b0319168417815560018054600162ffff0160a01b031916831760a89890981b61ffff60a81b1697909717909655845194957f20e129319e4c2deef82634fd7c4a88a701f56166ca04508c70748f063f84605a9593907ff8ccb027dfcd135e000e9d45e6cc2d662578a8825d4c45b5e32e0adf67e79ec68180a35f7f079ff2d4b4a356b82422ba2495377a26ec26adee2cbd3665a2b5d6ad623bf0a88180a38152a15161244190816200029b82396080518181816105da01528181610d2e0152818161129e01528181611a2401528181611aa60152611ad70152f35b855162461bcd60e51b815260048101869052601460248201527f6d616e616765722066656520746f6f20686967680000000000000000000000006044820152606490fd5b855162461bcd60e51b815260048101869052600960248201526806d616e616765723d360bc1b6044820152606490fd5b865162461bcd60e51b8152600481018790526007602482015266061646d696e3d360cc1b6044820152606490fd5b865162461bcd60e51b8152600481018790526007602482015266061737365743d360cc1b6044820152606490fd5b5f80fd5b634e487b7160e01b5f52604160045260245ffd5b51906001600160a01b03821682036200026d5756fe608080604052600436101561001c575b50361561001a575f80fd5b005b5f905f3560e01c908163083ff0f014611c5e575080630947e8c714611c3a5780630ad58d2f146118a45780630d01c1961461187a57806316c38b3c1461180257806317d94436146117b45780631e5f8393146112cd57806338d52e0f14611288578063488bd7b01461126c5780634efe5ada146112425780635c975abb1461121c57806375829def1461117c5780637a7af70d146111515780637d73b231146111285780637fb5080f14611061578063847799411461101c578063869da9db14610f9f57806389af2fa814610ea35780638c64ea4a14610e3e5780638dbdbe6d14610c085780639284f3ba14610b28578063a7c6a10014610b0a578063aa2510dc14610a5b578063ad95487814610a16578063adce1c5f146109ed578063b8fe8d5f146109ae578063b91310801461096b578063ca1dd22e146108a3578063cc17d35b14610538578063d3e625021461050f578063e0951cee14610479578063e25fba4614610324578063f3d83173146101eb578063f851a440146101c45763fd967f470361000f57346101c157806003193601126101c15760206040516127108152f35b80fd5b50346101c157806003193601126101c157546040516001600160a01b039091168152602090f35b50346101c15760603660031901126101c157610205611c78565b61020d611c8e565b6044359160018060a01b038091610228828754163314611fda565b169182156102f257169081156102c057821561028c57816bffffffffffffffffffffffff60a01b828160045416176004556005541617600555826006557f6bb6b5dfb270dec9d1ac636074cd3a6cf455f456a3100dd36d8c6c17364161fc8480a480f35b60405162461bcd60e51b815260206004820152600c60248201526b0706172656e744e6f64653d360a41b6044820152606490fd5b60405162461bcd60e51b815260206004820152600a60248201526907265736f6c7665723d360b41b6044820152606490fd5b60405162461bcd60e51b815260206004820152600a602482015269072656769737472793d360b41b6044820152606490fd5b50346101c15760203660031901126101c15761033e611d4f565b61035060ff60015460a01c1615611e9e565b61ffff8091166103646127108211156120a2565b6003545f19811461046557600101918260035560405160a081018181106001600160401b03821117610451576040908152338252602082810185815283830188815260608501898152600160808701908152898b5260078552949099209451855492516001600160b01b03199093166001600160a01b0391909116179190951660a01b61ffff60a01b161783559561041d93600392919051600185015551600284015551151591019060ff801983541691151516179055565b604051908152817f695c00457b931c694c373bab213807a5dd4e8d11712c92bd047c88874a8b645a843393a3604051908152f35b634e487b7160e01b5f52604160045260245ffd5b634e487b7160e01b84526011600452602484fd5b50346101c15760603660031901126101c1576001600160401b0360043560243582811161050b576104ae903690600401611d0c565b604492919235938411610507576104cc610504943690600401611d0c565b9390926104e360018060a01b038854163314611fda565b6104f560ff60015460a01c1615611e9e565b6104fe816122ba565b9061230c565b80f35b8480fd5b8380fd5b50346101c157806003193601126101c1576001546040516001600160a01b039091168152602090f35b50346101c15760a03660031901126101c15760043590610556611c8e565b906064356001600160401b03811161089f57610576903690600401611d0c565b82546001600160a01b039591906105909087163314611fda565b6105a260ff60015460a01c1615611e9e565b6105ae600d5415611ed3565b6001600d556105bc82612112565b94868116938486526020976002895260ff60408820541615610865577f00000000000000000000000000000000000000000000000000000000000000001692604051926370a0823160e01b8085523060048601526024918b8684818a5afa95861561085a57908a918297610827575b50819060405186888237808781018481520391604435905af161064c6120e3565b50156107f5578a90826040518098819382523060048301525afa9485156107ea5788956107b7575b508385106107295760026106888587611fc0565b99016106958a8254611fcd565b90555b60843589126106fb57507f2ccde4721438ce545a8a26a34701417e5d45f606050f78db5aaf51dcbd4c32ad9392916106ed916040519485948b86528c860152604085015260806060850152608084019161202d565b0390a3600d55604051908152f35b8960086064926040519262461bcd60e51b8452600484015282015267736c69707061676560c01b6044820152fd5b6107338585611fc0565b600160ff1b81146107a4576002818a039a01908154818110610760579061075991611fc0565b9055610698565b60405162461bcd60e51b8152600481018e90526019818601527f6c6f73732065786365656473207661756c7420617373657473000000000000006044820152606490fd5b50634e487b7160e01b8852601160045287fd5b9094508981813d83116107e3575b6107cf8183611ddb565b810103126107df5751935f610674565b5f80fd5b503d6107c5565b6040513d8a823e3d90fd5b60405162461bcd60e51b8152600481018c9052600b818401526a1cddd85c0819985a5b195960aa1b6044820152606490fd5b8d809298508193503d8311610853575b6108418183611ddb565b810103126107df57519489908161062b565b503d610837565b6040513d8c823e3d90fd5b60405162461bcd60e51b8152600481018a905260126024820152711d185c99d95d081b9bdd08185b1b1bddd95960721b6044820152606490fd5b5080fd5b50346101c15760403660031901126101c1576108bd611c78565b60243590811515908183036107df5783546001600160a01b0391906108e59083163314611fda565b1691821561093b577fd5cc69c3fd825b34b369396f105ab7c13b09d888d513418c0e02a42db31339999161093160209285875260028452604087209060ff801983541691151516179055565b604051908152a280f35b60405162461bcd60e51b815260206004820152600860248201526707461726765743d360c41b6044820152606490fd5b50346101c15760203660031901126101c15761099660406109aa926004358152600b60205220611dfc565b604051918291602083526020830190611cce565b0390f35b50346101c15760203660031901126101c15760209060ff906040906001600160a01b036109d9611c78565b168152600284522054166040519015158152f35b50346101c157806003193601126101c1576005546040516001600160a01b039091168152602090f35b50346101c15760403660031901126101c1576040610a32611c8e565b9160043581526008602052209060018060a01b03165f52602052602060405f2054604051908152f35b50346101c15760203660031901126101c157610a75611c78565b81546001600160a01b03918291610a8f9083163314611fda565b16908115610ad957600154826bffffffffffffffffffffffff60a01b821617600155167f079ff2d4b4a356b82422ba2495377a26ec26adee2cbd3665a2b5d6ad623bf0a88380a380f35b60405162461bcd60e51b815260206004820152600960248201526806d616e616765723d360bc1b6044820152606490fd5b50346101c157806003193601126101c1576020600354604051908152f35b50346101c15760403660031901126101c15760043560243561ffff8116908181036107df57610b5f60ff60015460a01c1615611e9e565b610b6883612112565b80549092906001600160a01b03163303610bd1576109316020927fbb919b9006e69a2d15c343818cf6da3b9d4003cda19415f68615d523ad8c6ce894610bb26127108511156120a2565b805461ffff60a01b191660a09290921b61ffff60a01b16919091179055565b60405162461bcd60e51b815260206004820152600f60248201526e3737ba103b30bab63a1037bbb732b960891b6044820152606490fd5b50346101c157610c1736611ca4565b929091610c2c60ff60015460a01c1615611e9e565b610c38600d5415611ed3565b6001600d55610c4681612112565b6001600160a01b0394909390851691610c60831515611f0b565b610c6b821515611f44565b610c758286612284565b948515610e0b5780600160029201610c8e888254611fcd565b905501610c9c838254611fcd565b90558084526020956008875260408520845f52875260405f20610cc0878254611fcd565b90558185526009875260408520845f52875260405f20610ce1848254611fcd565b9055604051878101916323b872dd60e01b83523360248301523060448301528460648301526064825260a08201928284106001600160401b038511176104515787809493819460405251927f0000000000000000000000000000000000000000000000000000000000000000165af1610d586120e3565b81610ddb575b5015610da05760405191825284868301527fefd7bb4f992963087670aa168590baee24d227ff5c18ae3790ef7ec22bde627460403393a4600d55604051908152f35b60405162461bcd60e51b81526004810187905260136024820152721d1c985b9cd9995c919c9bdb4819985a5b1959606a1b6044820152606490fd5b80518015925088908315610df3575b5050505f610d5e565b610e03935082018101910161219d565b5f8781610dea565b60405162461bcd60e51b815260206004820152600b60248201526a7a65726f2073686172657360a81b6044820152606490fd5b50346101c15760203660031901126101c157604060a091600435815260076020522080549060018101549060ff60036002830154920154169161ffff60405194600180881b0381168652861c1660208501526040840152606083015215156080820152f35b50346101c15760603660031901126101c1576004356001600160401b0360243581811161050b57610ed8903690600401611d60565b909160443590811161050757610ef2903690600401611d60565b610f0960018060a09794971b038754163314611fda565b600194610f1e60ff60015460a01c1615611e9e565b610f27836122ba565b93828103610f6857875b818110610f3c578880f35b80610f62610f4c8a93858b61204d565b90610f5884898961204d565b9290918b8b61230c565b01610f31565b60405162461bcd60e51b815260206004820152600f60248201526e0d8cadccee8d040dad2e6dac2e8c6d608b1b6044820152606490fd5b50346101c15760403660031901126101c15760609060043590610fc0611c8e565b6040610fcb84612112565b9284815260086020528181209260018060a01b031692835f52602052815f2054948152600960205220905f526020526110098260405f205492612164565b9060405192835260208301526040820152f35b50346101c15760403660031901126101c1576040611038611c8e565b9160043581526009602052209060018060a01b03165f52602052602060405f2054604051908152f35b50346101c15760203660031901126101c15761107b611d4f565b61108f60018060a01b038354163314611fda565b61ffff81169061271082116110ec576001805461ffff60a81b191660a89290921b61ffff60a81b169190911790556040519081527f20e129319e4c2deef82634fd7c4a88a701f56166ca04508c70748f063f84605a90602090a180f35b60405162461bcd60e51b81526020600482015260146024820152730dac2dcc2cecae440cccaca40e8dede40d0d2ced60631b6044820152606490fd5b50346101c157806003193601126101c1576004546040516001600160a01b039091168152602090f35b50346101c157602061117461116f61116836611d39565b9190612112565b612284565b604051908152f35b50346101c15760203660031901126101c157611196611c78565b8154906001600160a01b03808316916111b0338414611fda565b169182156111ed576001600160a01b031916821783557ff8ccb027dfcd135e000e9d45e6cc2d662578a8825d4c45b5e32e0adf67e79ec68380a380f35b60405162461bcd60e51b8152602060048201526007602482015266061646d696e3d360cc1b6044820152606490fd5b50346101c157806003193601126101c157602060ff60015460a01c166040519015158152f35b50346101c15760203660031901126101c15760406020916004358152600c83522054604051908152f35b50346101c157602061117461128361116836611d39565b612164565b50346101c157806003193601126101c1576040517f00000000000000000000000000000000000000000000000000000000000000006001600160a01b03168152602090f35b50346107df5760403660031901126107df576024356001600160401b0381116107df576112fe903690600401611d0c565b61131560018060a09594951b035f54163314611fda565b61132760ff60015460a01c1615611e9e565b611332600435612112565b506004546001600160a01b031690811561177e576005546001600160a01b031680156117485760065480156117145782156116e5576004355f52600a60205260405f20546116ae5761138383612012565b6113906040519182611ddb565b838152602081019036858901116107df57848883375f6020868301015251902060405194826020870152816040870152604086528560608101106001600160401b0360608801111761045157606086016040528551602087012095865f52600c60205260405f20546116775750803b156107df575f928360a49260405196879586946305ef2c7f60e41b86526004860152602485015230604485015260648401528160848401525af1801561166c57611659575b506005546001600160a01b0316803b1561050b5783809160446040518094819362d5fa2b60e81b83528860048401523060248401525af1801561164e57908491611636575b50506004358352600a602052816040842055600b60205260408320936001600160401b038211611622576114bd8554611d90565b94601f86116115dd575b6020955084601f841160011461155657918561154092857f0421c8a8c2232ab52e287936562c9ff9116662418e018d11a7222bf16ea826099588999161154b575b508660011b905f198860031b1c19161790555b858152600c88526040600435912055604051918291888352600435958984019161202d565b0390a3604051908152f35b90508301355f611508565b81865286862090601f198516875b8181106115c65750927f0421c8a8c2232ab52e287936562c9ff9116662418e018d11a7222bf16ea8260994928798928761154096106115ad575b5050600186811b01905561151b565b8401355f19600389901b60f8161c191690555f8061159e565b919289600181928689013581550194019201611564565b80855260208520601f840160051c81019660208510611618575b601f0160051c01955b86811061160d57506114c7565b858155600101611600565b90965086906115f7565b634e487b7160e01b84526041600452602484fd5b61163f90611dc8565b61164a57825f611489565b8280fd5b6040513d86823e3d90fd5b611664919350611dc8565b5f915f611444565b6040513d5f823e3d90fd5b606060649162461bcd60e51b82820152602083820152600e60848201526d195b9cc81b1858995b081d5cd95960921b60a482015201fd5b60405162461bcd60e51b815260206004820152600f60248201526e195b9cc8185b1c9958591e481cd95d608a1b6044820152606490fd5b60405162461bcd60e51b815260206004820152600760248201526606c6162656c3d360cc1b6044820152606490fd5b60405162461bcd60e51b815260206004820152600c60248201526b0656e7320706172656e743d360a41b6044820152606490fd5b60405162461bcd60e51b815260206004820152600e60248201526d0656e73207265736f6c7665723d360941b6044820152606490fd5b60405162461bcd60e51b815260206004820152600e60248201526d0656e732072656769737472793d360941b6044820152606490fd5b346107df5760203660031901126107df576004355f52600a60205260405f2054600b6020526117e560405f20611dfc565b906109aa6040519283928352604060208401526040830190611cce565b346107df5760203660031901126107df576004358015158091036107df5760207f77860e247ab9186dbe64e5bd0e0b93273cc4273e01818420e788f500078886f59161185860018060a01b035f54163314611fda565b6001805460ff60a01b191660a083901b60ff60a01b16179055604051908152a1005b346107df5760203660031901126107df576004355f52600a602052602060405f2054604051908152f35b346107df576118b236611ca4565b6118c760ff60019493945460a01c1615611e9e565b6118d3600d5415611ed3565b6001600d556118e182612112565b6001600160a01b0392828416926118f9841515611f0b565b8515611c0a57815f526020956008875260405f20335f52875260405f205493818510611bcf576119298282612164565b94611935861515611f44565b600282019086825410611b8a57906119978492875f5260098c5260405f20335f528c5260405f20548c600861197e611976856119718a87611f7b565b611fa2565b978895611fc0565b918b5f52528d60405f2090335f525260405f2055611fc0565b865f5260098b5260405f20335f528b5260405f2055600183016119bb858254611fc0565b90556119c8878254611fc0565b905580861115611b82576119dc9086611fc0565b925b5f905f925490898216918233141580611b79575b611b03575b5090611a4991611a1085611a0b868c611fc0565b611fc0565b9a8b928580611ad0575b505085611a9a575b7f0000000000000000000000000000000000000000000000000000000000000000166121b5565b604051958652878987015260408601526060850152608084015260a08301527f04a8e976c4c86263a680807dde8ea7da3253fd624290146ee93ef20131372d8960c03393a45f600d55604051908152f35b611acb868260015416837f0000000000000000000000000000000000000000000000000000000000000000166121b5565b611a22565b611afc91837f0000000000000000000000000000000000000000000000000000000000000000166121b5565b8d85611a1a565b92509250612710611b2f81611b2061ffff809660a01c1689611f7b565b049360015460a81c1687611f7b565b049285611b3c8585611fcd565b11611b48575b8b6119f7565b92509084811115611b645750611a4984915f935b909150611b42565b90611a4990611b738387611fc0565b93611b5c565b508615156119f2565b505f926119de565b60405162461bcd60e51b8152600481018b9052601960248201527f696e73756666696369656e74207661756c7420617373657473000000000000006044820152606490fd5b60405162461bcd60e51b8152600481018990526013602482015272696e73756666696369656e742073686172657360681b6044820152606490fd5b60405162461bcd60e51b815260206004820152600860248201526707368617265733d360c41b6044820152606490fd5b346107df575f3660031901126107df57602061ffff60015460a81c16604051908152f35b346107df575f3660031901126107df576020906006548152f35b600435906001600160a01b03821682036107df57565b602435906001600160a01b03821682036107df57565b60609060031901126107df5760043590602435906044356001600160a01b03811681036107df5790565b91908251928382525f5b848110611cf8575050825f602080949584010152601f8019910116010190565b602081830181015184830182015201611cd8565b9181601f840112156107df578235916001600160401b0383116107df57602083818601950101116107df57565b60409060031901126107df576004359060243590565b6004359061ffff821682036107df57565b9181601f840112156107df578235916001600160401b0383116107df576020808501948460051b0101116107df57565b90600182811c92168015611dbe575b6020831014611daa57565b634e487b7160e01b5f52602260045260245ffd5b91607f1691611d9f565b6001600160401b03811161045157604052565b90601f801991011681019081106001600160401b0382111761045157604052565b9060405191825f8254611e0e81611d90565b908184526020946001916001811690815f14611e7c5750600114611e3e575b505050611e3c92500383611ddb565b565b5f90815285812095935091905b818310611e64575050611e3c93508201015f8080611e2d565b85548884018501529485019487945091830191611e4b565b92505050611e3c94925060ff191682840152151560051b8201015f8080611e2d565b15611ea557565b60405162461bcd60e51b81526020600482015260066024820152651c185d5cd95960d21b6044820152606490fd5b15611eda57565b60405162461bcd60e51b81526020600482015260096024820152681c99595b9d1c985b9d60ba1b6044820152606490fd5b15611f1257565b60405162461bcd60e51b815260206004820152600a602482015269072656365697665723d360b41b6044820152606490fd5b15611f4b57565b60405162461bcd60e51b815260206004820152600860248201526706173736574733d360c41b6044820152606490fd5b81810292918115918404141715611f8e57565b634e487b7160e01b5f52601160045260245ffd5b8115611fac570490565b634e487b7160e01b5f52601260045260245ffd5b91908203918211611f8e57565b91908201809211611f8e57565b15611fe157565b60405162461bcd60e51b81526020600482015260096024820152683737ba1030b236b4b760b91b6044820152606490fd5b6001600160401b03811161045157601f01601f191660200190565b908060209392818452848401375f828201840152601f01601f1916010190565b919081101561208e5760051b81013590601e19813603018212156107df5701908135916001600160401b0383116107df5760200182360381136107df579190565b634e487b7160e01b5f52603260045260245ffd5b156120a957565b60405162461bcd60e51b81526020600482015260126024820152710deeedccae440cccaca40e8dede40d0d2ced60731b6044820152606490fd5b3d1561210d573d906120f482612012565b916121026040519384611ddb565b82523d5f602084013e565b606090565b5f52600760205260405f209060ff6003830154161561212d57565b60405162461bcd60e51b815260206004820152600f60248201526e1d985d5b1d081b9bdd08199bdd5b99608a1b6044820152606490fd5b60018101549081158015612191575b61218c5761218992600261197192015490611f7b565b90565b505090565b50600281015415612173565b908160209103126107df575180151581036107df5790565b60405163a9059cbb60e01b602082019081526001600160a01b0390931660248201526044808201949094529283526080830192916001600160401b03841183851017610451575f809493819460405251925af16122106120e3565b81612255575b501561221e57565b60405162461bcd60e51b815260206004820152600f60248201526e1d1c985b9cd9995c8819985a5b1959608a1b6044820152606490fd5b805180159250821561226a575b50505f612216565b61227d925060208091830101910161219d565b5f80612262565b6001810154801580156122ae575b61218c576122a560029161218994611f7b565b91015490611fa2565b50600282015415612292565b6122c381612112565b505f52600a60205260405f20549081156122d957565b60405162461bcd60e51b815260206004820152600b60248201526a195b9cc81b9bdd081cd95d60aa1b6044820152606490fd5b9392909481156123de576005546001600160a01b031693843b156107df575f604051809663043c4ea360e21b82528960048301526060602483015281838161236e61235b606483018b8d61202d565b828103600319016044840152898961202d565b03925af191821561166c577f3a96ce903af93d0eb64dad425ac0f3fcf7957944f07530a550a64dbb27aa5b86956123ca936123cf575b506123bc60405195869560408752604087019161202d565b91848303602086015261202d565b0390a3565b6123d890611dc8565b5f6123a4565b60405162461bcd60e51b815260206004820152600560248201526406b65793d360dc1b6044820152606490fdfea2646970667358221220b1303c8d6d8230e8e8c49f33f1d46af90578b601694c8af8583a57983c56f4b164736f6c63430008180033","linkReferences":{}},"methodIdentifiers":{"MAX_BPS()":"fd967f47","admin()":"f851a440","allowedTargets(address)":"b8fe8d5f","asset()":"38d52e0f","createVault(uint16)":"e25fba46","deposit(uint256,uint256,address)":"8dbdbe6d","ensNodeVaultId(bytes32)":"4efe5ada","ensParentNode()":"083ff0f0","ensRegistry()":"7d73b231","ensResolver()":"adce1c5f","executeTrade(uint256,address,uint256,bytes,int256)":"cc17d35b","getUserPosition(uint256,address)":"869da9db","getVaultEnsRecord(uint256)":"17d94436","managerFeeBps()":"0947e8c7","managerRecipient()":"d3e62502","paused()":"5c975abb","previewDeposit(uint256,uint256)":"7a7af70d","previewWithdraw(uint256,uint256)":"488bd7b0","registerVaultEns(uint256,string)":"1e5f8393","setAllowedTarget(address,bool)":"ca1dd22e","setEnsConfig(address,address,bytes32)":"f3d83173","setManagerFeeBps(uint16)":"7fb5080f","setManagerRecipient(address)":"aa2510dc","setPaused(bool)":"16c38b3c","setVaultEnsText(uint256,string,string)":"e0951cee","setVaultEnsTexts(uint256,string[],string[])":"89af2fa8","setVaultOwnerFeeBps(uint256,uint16)":"9284f3ba","transferAdmin(address)":"75829def","userPrincipal(uint256,address)":"84779941","userShares(uint256,address)":"ad954878","vaultCount()":"a7c6a100","vaultEnsLabel(uint256)":"b9131080","vaultEnsNode(uint256)":"0d01c196","vaults(uint256)":"8c64ea4a","withdraw(uint256,uint256,address)":"0ad58d2f"},"id":0}